00000000DAILYTXNMX51    A2026022520260225                                                                                                                                                                                                                                                                                                                                                                                                                                                                                                                                                                                                                                                                                   
000000010200    165432100000001234   0000000000000142500000000142500000000142500225143022100001143022022527120225541103607100100POSPAY000014012345678900824510050112233POSPAY000012345JOE'S COFFEE SYDNEY AU                  036036000000000000                                                                                                             1POSPAY000012345 POSmx51                            CBA Ltd                         CBA     S00000000                                        NAD00000000000000000000000000000000000000000000000000000000000 Apple Pay           DD0                                                                                                                            
000000020200    165432100000005678   0000000000000089950000000089950000000089950225141200100002141200022529030225541103605100000POSPAY000014012345678910824520050112233POSPAY000012345JOE'S COFFEE SYDNEY AU                  036036000000000000                                                                                                             1POSPAY000012345 POSmx51                            ANZ Bank                        ANZ     S00000000                                        NAD00000000000000000000000000000000000000000000000000000000000                     DD0                                                                                                                            
000000030200    165432100000009012   2000000000000045000000000045000000000045000225140100100003140100022528010225541103607100000POSPAY000014012345678920824530050112233POSPAY000012345JOE'S COFFEE SYDNEY AU                  036036000000000000                                                                                                             1POSPAY000012345 POSmx51                            NAB Ltd                         NAB     S00000000                                        NAD00000000000000000000000000000000000000000000000000000000000                     CD0                                                                                                                            
000000040200    164111222233334444   0000000000000312800000000312800000000312800225093000100004093000022526050225541103605100000POSPAY000014012345678930824540050112234POSPAY000012345JOE'S COFFEE SYDNEY AU                  036036000000000000                                                                                                             1POSPAY000012345 POSmx51                            Westpac Ltd. Corporation        WBC     S00000000                                        NAD00000000000000000000000000000000000000000000000000000000000                     DD0                                                                                                                            
000000050200    165432100000001234   0900000000000150000000000150000000000150000225082000100005082000022527120225541103607100100POSPAY000014012345678940824550050112233POSPAY000012345JOE'S COFFEE SYDNEY AU                  036036000000005000                                                                                                             1POSPAY000012345 POSmx51                            CBA Ltd                         CBA     S00000000                                        NAD00000000000000000000000000000000000000000000000000000000000                     DD0                                                                                                                            
8888888800000005000000074025000000000000                                                                                                                                                                                                                                                                                                                                                                                                                                                                                                                                                                                                                                                                                    
9999999999999999999999999999999999999999999999999999999999999999999999999999999999999999999999999999999999999999999999999999999999999999999999999999999999999999999999999999999999999999999999999999999999999999999999999999999999999999999999999999999999999999999999999999999999999999999999999999999999999999999999999999999999999999999999999999999999999999999999999999999999999999999999999999999999999999999999999999999999999999999999999999999999999999999999999999999999999999999999999999999999999999999999999999999999999999999999999999999999999999999999999999999999999999999999999999999999999999999999999999999999999999999999999999999999999999999999999999999999999999999999999999999999999999999999999999
